:100000000C945C000C9479000C9479000C947900A9
:100010000C9479000C9479000C9479000C9479007C
:100020000C9479000C9479000C9479000C9479006C
:100030000C9479000C9479000C9479000C9479005C
:100040000C9441010C9479000C9479000C94790083
:100050000C9479000C9479000C9479000C9479003C
:100060000C9479000C947900000000080002010053
:100070000003040700000000000000000000000072
:10008000250028002B0000000000240027002A0083
:10009000040404040404040402020202020203032E
:1000A0000303030301020408102040800102040836
:1000B000102001020408102011241FBECFEFD8E049
:1000C000DEBFCDBF11E0A0E0B1E0ECE1F4E002C0A2
:1000D00005900D92A230B107D9F721E0A2E0B1E07E
:1000E00001C01D92AB30B207E1F70E948B010C9466
:1000F0000C020C94000090E0FC01EC55FF4F2491A1
:1001000080579F4FFC018491882399F090E0880FDD
:10011000991FFC01EA57FF4FA591B491FC01E458E7
:10012000FF4F859194918FB7F894EC91E22BEC936B
:100130008FBF089590E0FC01E859FF4F2491FC0126
:10014000EC55FF4F3491FC01E057FF4FE491EE2353
:10015000C9F0222339F0233001F1A8F4213019F13C
:10016000223029F1F0E0EE0FFF1FE458FF4FA59178
:10017000B4918FB7F894EC91611126C030953E236D
:100180003C938FBF08952730A9F02830C9F0243060
:1001900049F7809180008F7D03C0809180008F7728
:1001A00080938000DFCF84B58F7784BDDBCF84B5AB
:1001B0008F7DFBCF8091B0008F778093B000D2CF3E
:1001C0008091B0008F7DF9CF3E2BDACF3FB7F89406
:1001D0008091070190910801A0910901B0910A0155
:1001E00026B5A89B05C02F3F19F00196A11DB11D92
:1001F0003FBFBA2FA92F982F8827BC01CD01620FCE
:10020000711D811D911D42E0660F771F881F991F88
:100210004A95D1F708958F929F92AF92BF92CF9255
:10022000DF92EF92FF920E94E6004B015C0188EBA7
:10023000C82E8BE0D82EE12CF12C0E94E600681924
:1002400079098A099B09683E734081059105A8F3E5
:1002500021E0C21AD108E108F10888EE880E83E097
:10026000981EA11CB11CC114D104E104F10429F7AA
:10027000FF90EF90DF90CF90BF90AF909F908F90C6
:1002800008951F920F920FB60F9211242F933F9350
:100290008F939F93AF93BF9380910301909104013B
:1002A000A0910501B09106013091020123E0230FD6
:1002B0002D3758F50196A11DB11D209302018093A1
:1002C000030190930401A0930501B093060180916E
:1002D000070190910801A0910901B0910A010196CE
:1002E000A11DB11D8093070190930801A0930901FE
:1002F000B0930A01BF91AF919F918F913F912F9140
:100300000F900FBE0F901F90189526E8230F0296AE
:10031000A11DB11DD2CF789484B5826084BD84B50F
:10032000816084BD85B5826085BD85B5816085BDF0
:1003300080916E00816080936E00109281008091A8
:100340008100826080938100809181008160809330
:100350008100809180008160809380008091B10055
:1003600084608093B1008091B00081608093B00080
:1003700080917A00846080937A0080917A00826014
:1003800080937A0080917A00816080937A008091D6
:100390007A00806880937A001092C10080910001F9
:1003A0000E947B0085E00E947B0086E00E947B002B
:1003B00000E010E0C0910001D091010161E08C2FBC
:1003C0000E949A000E940B0160E08C2F0E949A000C
:1003D0002196D0930101C09300012797BCF0C091F2
:1003E0000001D0910101C430D10584F061E08C2F6F
:1003F0000E949A000E940B0160E08C2F0E949A00DC
:100400002197D0930101C0930001E9CF0115110597
:0C04100089F20E940000CECFF894FFCFCC
:02041C000400DA
:00000001FF
